:1000000071C000008EC000008CC000008AC00000DB
:1000100088C0000086C0000084C0000082C00000CC
:1000200080C000007EC000007CC000007AC00000DC
:1000300078C0000076C0000074C0000072C00000EC
:1000400070C000006FC000006CC000006AC00000FB
:1000500068C0000066C0000064C0000062C000000C
:1000600060C000005EC000005CC000005AC000001C
:1000700058C0000056C0000054C0000052C000002C
:1000800076C000004EC000004CC000004AC0000016
:1000900048C0000046C0000044C0000042C000004C
:1000A00040C000003EC000003CC000003AC000005C
:1000B00038C0000036C0000034C0000032C000006C
:1000C00030C000002EC000002CC000002AC000007C
:1000D00028C0000026C0000024C0000022C000008C
:1000E00020C0000011241FBECFEFD1E2DEBFCDBF84
:1000F00000E00CBF12E0A0E0B2E0E8EDF6E000E0C6
:100100000BBF02C007900D92AA33B107D9F722E0C6
:10011000AAE3B2E001C01D92A234B207E1F75CD1BC
:10012000D9C26ECF1F920F920FB60F9211248F93E8
:100130009F93AF93BF9380913E0290913F02A09115
:100140004002B09141020196A11DB11D80933E0273
:1001500090933F02A0934002B0934102BF91AF91B0
:100160009F918F910F900FBE0F901F9018951F9227
:100170000F920FB60F9211248F939F93AF93BF935B
:1001800080913A0290913B02A0913C02B0913D02D5
:100190000596A11DB11D80933A0290933B02A09356
:1001A0003C02B0933D02BF91AF919F918F910F9010
:1001B0000FBE0F901F9018952F923F924F925F9213
:1001C0006F927F928F929F92AF92BF92CF92DF9267
:1001D000EF92FF920F931F93CF93DF93CDB7DEB7CC
:1001E000ED970FB6F894DEBF0FBECDBF83E1E0E020
:1001F000F2E0DE01119601900D928A95E1F786E218
:10020000E3E1F2E0DE01549601900D928A95E1F768
:10021000CE0101961C017E0194E1E90EF11C6E01F4
:10022000EAE3CE0ED11C0BE011E044244394512CA0
:100230000F2EF0E96F2E77247394F02DF101819148
:100240001F01882309F459C0813019F08F3031F033
:1002500012C0F8018081806880830DC0F801808120
:1002600080688083808180628083808188608083D1
:10027000808182608083F70160817181072E000C8C
:10028000880B990B10D16AAF7BAF8CAF9DAF20E08C
:1002900030E04AE755E493D14B015C0120E030E0C7
:1002A00040E85FE3CED0882314F120E03FEF4FE732
:1002B00057E4C501B4017FD11816ACF420E030E05A
:1002C00040E251E46AAD7BAD8CAD9DAD78D1BDD03F
:1002D0006115710509F460C0C3010197F1F7615020
:1002E0007109D1F759C0C501B401AFD002C0642D66
:1002F000752DCB010197F1F74FC0F80180818F7701
:10030000808380818F7D80838081877F80838081CF
:100310008D7F80832B982998F70160817181072E4A
:10032000000C880B990BBFD06AAF7BAF8CAF9DAF31
:1003300020E030E04AE755E442D14B015C0120E087
:1003400030E040E85FE37DD088230CF120E03FEF10
:100350004FE757E4C501B4012ED11816A4F420E0EC
:1003600030E040E251E46AAD7BAD8CAD9DAD27D16C
:100370006CD06115710581F0C3010197F1F76150EF
:100380007109D1F709C0C501B4015FD002C0642D65
:10039000752DCB010197F1F7F2E0EF0EF11CCE14B1
:1003A000DF0409F04BCFED960FB6F894DEBF0FBE19
:1003B000CDBFDF91CF911F910F91FF90EF90DF9014
:1003C000CF90BF90AF909F908F907F906F905F90F5
:1003D0004F903F902F900895F89482E090E0909392
:1003E00089008093880010928000E1E8F0E010829C
:1003F0008081886080838081826080838081816049
:100400008083EFE6F0E080818260808384EC99E075
:10041000909399008093980010929000E1E9F0E0A9
:100420001082808188608083808182608083E1E7A0
:10043000F0E08081826080837894BEDE80E090E08E
:1004400008956CD008F481E0089594D088F09F5707
:1004500090F0B92F9927B751A0F0D1F0660F771F10
:10046000881F991F1AF0BA95C9F712C0B13081F0F0
:100470009BD0B1E0089598C0672F782F8827B85F88
:1004800039F0B93FCCF3869577956795B395D9F751
:100490003EF490958095709561957F4F8F4F9F4F5B
:1004A0000895E89409C097FB3EF490958095709567
:1004B00061957F4F8F4F9F4F9923A9F0F92F96E9B0
:1004C000BB279395F695879577956795B795F11125
:1004D000F8CFFAF4BB0F11F460FF1BC06F5F7F4FC2
:1004E0008F4F9F4F16C0882311F096E911C07723D4
:1004F00021F09EE8872F762F05C0662371F096E8DD
:10050000862F70E060E02AF09A95660F771F881FAB
:10051000DAF7880F9695879597F90895990F00084F
:10052000550FAA0BE0E8FEEF16161706E807F907C5
:10053000C0F012161306E407F50798F0621B730B60
:10054000840B950B39F40A2661F0232B242B252BE1
:1005500021F408950A2609F4A140A6958FEF811D84
:10056000811D089557FD9058440F551F59F05F3F66
:1005700071F04795880F97FB991F61F09F3F79F0C5
:1005800087950895121613061406551FF2CF469547
:10059000F1DF08C0161617061806991FF1CF8695C9
:1005A0007105610508940895E894BB2766277727AD
:1005B000CB0197F90895B2DF08F48FEF08950BD0BF
:1005C00078C069D028F06ED018F0952309F05AC091
:1005D0005FC01124EACFC6DFA0F3959FD1F3950F3A
:1005E00050E0551F629FF001729FBB27F00DB11DB7
:1005F000639FAA27F00DB11DAA1F649F6627B00D47
:10060000A11D661F829F2227B00DA11D621F739F2F
:10061000B00DA11D621F839FA00D611D221F749F3D
:100620003327A00D611D231F849F600D211D822F84
:10063000762F6A2F11249F5750408AF0E1F08823CB
:100640004AF0EE0FFF1FBB1F661F771F881F9150D8
:100650005040A9F79E3F510570F014C0A6CF5F3FF0
:10066000ECF3983EDCF3869577956795B795F7950B
:10067000E7959F5FC1F7FE2B880F911D9695879593
:1006800097F9089597F99F6780E870E060E0089512
:100690009FEF80EC089500240A941616170618069A
:1006A0000906089500240A94121613061406050676
:1006B0000895092E0394000C11F4882352F0BB0F07
:1006C00040F4BF2B11F460FF04C06F5F7F4F8F4F6A
:0806D0009F4F0895F894FFCF3D
:1006D8000100010001000F000F000F0001000100E0
:1006E8000100006400FA006400FA006400F401FAF2
:1006F80000FA00FA00FA00FA00F4016400FA006453
:0A07080000FA006400FA00FA000095
:00000001FF
