S013000061345F635F636F64696E672E73726563E7
S113000071C000008EC000008CC000008AC00000D7
S113001088C0000086C0000084C0000082C00000C8
S113002080C000007EC000007CC000007AC00000D8
S113003078C0000076C0000074C0000072C00000E8
S113004070C000006FC000006CC000006AC00000F7
S113005068C0000066C0000064C0000062C0000008
S113006060C000005EC000005CC000005AC0000018
S113007058C0000056C0000054C0000052C0000028
S113008076C000004EC000004CC000004AC0000012
S113009048C0000046C0000044C0000042C0000048
S11300A040C000003EC000003CC000003AC0000058
S11300B038C0000036C0000034C0000032C0000068
S11300C030C000002EC000002CC000002AC0000078
S11300D028C0000026C0000024C0000022C0000088
S11300E020C0000011241FBECFEFD1E2DEBFCDBF80
S11300F000E00CBF12E0A0E0B2E0E4E0F5E000E0D4
S11301000BBF02C007900D92A030B107D9F722E0CF
S1130110A0E0B2E001C01D92A830B207E1F7D4D04C
S1130120EFC16ECF1F920F920FB60F9211248F93CF
S11301309F93AF93BF938091040290910502A09185
S11301400602B09107020196A11DB11D809304021D
S113015090930502A0930602B0930702BF91AF915A
S11301609F918F910F900FBE0F901F9018951F9223
S11301700F920FB60F9211248F939F93AF93BF9357
S11301808091000290910102A0910202B0910302B9
S11301900596A11DB11D8093000290930102A093C6
S11301A00202B0930302BF91AF919F918F910F9080
S11301B00FBE0F901F901895CB01BA0110920B013E
S11301C015B820E030E04AEF53E40FD1B4D0AB01CE
S11301D0770F660B770BABE0B1E080E991E000911B
S11301E004021091050220910602309107020417BF
S11301F0150726073707BCF42C9120682C9320EDB3
S113020037E0FC013197F1F721503109D1F72C91F6
S11302102F772C9320ED37E0FC013197F1F7215033
S11302203109D1F7DCCF009104021091050220912D
S1130230060230910702043F114021053105BCF448
S11302402C9120622C9320ED37E0FC013197F1F7DB
S113025021503109D1F72C912F7D2C9320ED37E0DB
S1130260FC013197F1F721503109D1F7B8CF009152
S11302700402109105022091060230910702053F05
S11302801140210531050CF4AACF109204021092FA
S1130290050210920602109207022C9128602C93FA
S11302A020ED37E0FC013197F1F721503109D1F706
S11302B02C91277F2C9320ED37E0FC013197F1F747
S11302C021503109D1F78BCFF89482E090E09093DC
S11302D089008093880010928000E1E8F0E01082A9
S11302E08081886080838081826080838081816056
S11302F08083EFE6F0E080818260808384EC99E083
S1130300909399008093980010929000E1E9F0E0B6
S11303101082808188608083808182608083E1E7AD
S1130320F0E080818260808378944AE057ED63E254
S11303307CE382E041DF04D06894B11150C0089599
S113034033D088F09F5790F0B92F9927B751A0F078
S1130350D1F0660F771F881F991F1AF0BA95C9F755
S113036012C0B13081F03AD0B1E0089537C0672FA0
S1130370782F8827B85F39F0B93FCCF38695779505
S11303806795B395D9F73EF49095809570956195EE
S11303907F4F8F4F9F4F089557FD9058440F551F1F
S11303A059F05F3F71F04795880F97FB991F61F0F3
S11303B09F3F79F087950895121613061406551F6A
S11303C0F2CF4695F1DF08C0161617061806991FD6
S11303D0F1CF86957105610508940895E894BB27CB
S11303E066277727CB0197F908950BD078C069D099
S11303F028F06ED018F0952309F05AC05FC011247C
S1130400EECFCADFA0F3959FD1F3950F50E0551FAF
S1130410629FF001729FBB27F00DB11D639FAA2755
S1130420F00DB11DAA1F649F6627B00DA11D661FA4
S1130430829F2227B00DA11D621F739FB00DA11DC5
S1130440621F839FA00D611D221F749F3327A00D7F
S1130450611D231F849F600D211D822F762F6A2F1B
S113046011249F5750408AF0E1F088234AF0EE0FA0
S1130470FF1FBB1F661F771F881F91505040A9F7AD
S11304809E3F510570F014C0AACF5F3FECF3983E35
S1130490DCF3869577956795B795F795E7959F5F14
S11304A0C1F7FE2B880F911D9695879597F90895AE
S11304B097F99F6780E870E060E008959FEF80EC13
S11304C0089500240A9416161706180609060895B6
S11304D000240A9412161306140605060895092E1C
S11304E00394000C11F4882352F0BB0F40F4BF2B8B
S11304F011F460FF04C06F5F7F4F8F4F9F4F0895CB
S1070500F894FFCF99
S9030000FC
