:020000020000FC
:1000000061E27FEF6EBF7DBF5DC001E260D0EDD0E9
:1000100000275DD0EAD008E35AD0EED0002757D0B1
:10002000E4D001E254D0E1D0002751D04FC01AE211
:1000300082D015E180D01AE27ED015E17CD0D5D0F7
:10004000D4D01AE27ED015E17CD01AE27AD015E144
:1000500078D01AE276D015E174D01AE272D015E1A8
:1000600070D034C008EF0F9372D00F910CED0F9346
:100070006ED00F9140E24F936AD04F914695D9F7D9
:1000800025C055E45F936ED05F919F9360D09F91A0
:10009000ACD051E45F9366D05F919F9358D09F910D
:1000A000A4D05DE45F935ED05F919F9350D09F9109
:1000B0009CD058E45F9356D05F919F9348D09F9116
:1000C00094D004C09CE088EE7BD000C0FFCF4427D2
:1000D000AFEFBFEFC0E80F73000F000F423061F0C9
:1000E0004395000F20F0A695A6950C946E00A6955A
:1000F000A695AC0F0C946E00A695A695A695A69510
:10010000463051F04395B695B695000F10F00C941B
:100110008000BC0F0C9480004FEF40930A0144B95B
:10012000B0930B01A5B90C94950000274427AA278A
:10013000BB27CC2708950027010FC9DF0027C7DFA1
:1001400008950027010FC3DF0027C1DF089511279D
:10015000DEB7CDB71C8130EC3123303C61F3F1DFE9
:100160003327089599272227332736E04427DEB71F
:10017000CDB72C81FCE0E0E044913896421719F0AD
:100180004030C1F0F9CF9FE3379700C045914F361B
:1001900029F0990F3A95303039F0F8CF990F9395AF
:1001A0003A95303009F0F2CF4491423009F002C064
:1001B0009F7300C0222733274427DD27CC270895CB
:1001C000FF27EE27F92FE82F992788275591AE2F83
:1001D000BF2F5F93503041F0C5DF5F91EA2FFB2FB7
:1001E0009F93B5DF9F91F2CF08950F930EE00BD050
:1001F0000A95E9F70F9108950F9304E004D00A954A
:10020000E9F70F91089501D008950F931F932F934D
:1002100008E00A9539F01FEF1A95D9F32FEF2A95C8
:0C022000D9F3FDCF2F911F910F9108958D
:100C0000412E2E6F6F2E2E01422E6F2E2E6F2E0232
:100C1000436F2E6F2E2E2E01442E2E2E2E2E6F0160
:100C2000456F6F6F6F6F6F01462E6F6F6F6F2E0284
:100C3000476F6F2E2E6F6F02482E2E6F6F2E2E0273
:100C4000492E6F2E2E6F2E014A2E2E2E2E2E6F0223
:100C50004B2E2E2E2E6F6F024C6F2E6F2E6F2E018D
:100C60004D6F6F6F6F6F6F024E6F6F2E2E2E2E01B6
:100C70004F2E6F6F6F6F2E01506F2E6F6F2E6F01A3
:100C8000516F2E6F6F2E6F02526F6F2E2E6F6F018E
:100C9000532E2E2E2E6F6F01542E2E6F6F2E2E017F
:100CA000556F2E2E2E2E2E01566F2E6F2E6F2E026A
:100CB000576F2E6F2E2E2E02586F6F2E2E2E2E0255
:100CC000592E2E6F6F2E2E025A6F2E2E2E2E2E0282
:100CD0002D6F2E2E2E6F6F0148454C4C4F574F52A3
:100CE0004C44000054484500515549434B00425282
:100CF0004F574E00464F58004A554D50454400004E
:100D00004F5645520000544845004C415A59000086
:040D1000444F470005
:00000001FF
