:020000020000FC
:1000000071E28FEF7EBF8DBF3CC001E260D0D8D0DF
:1000100000275DD0D5D008E35AD0D9D0002757D0DB
:10002000CFD001E254D0CCD0002751D04FC01AE23B
:1000300082D015E180D01AE27ED015E17CD0C0D00C
:10004000BFD01AE27FD015E17DD01AE27BD015E156
:1000500079D01AE277D015E175D01AE273D015E1A4
:1000600071D034C008EF0F9374D00F910CED0F9343
:1000700070D00F9140E24F936CD04F914695D9F7D5
:1000800025C055E45F9370D05F919F9362D09F919C
:1000900097D051E45F9368D05F919F935AD09F911E
:1000A0008FD05DE45F9360D05F919F9352D09F911A
:1000B00087D058E45F9358D05F919F934AD09F9127
:1000C0007FD004C09CE088EE7AD000C0FFCF4427E8
:1000D000AFEFBFEFC0E80F73000F000F423061F0C9
:1000E0004395000F20F0A695A6950C946E00A6955A
:1000F000A695AC0F0C946E00A695A695A695A69510
:10010000463051F04395B695B695000F10F00C941B
:100110008000BC0F0C9480004FEF40930A0144B95B
:10012000B0930B01A5B90C94950000274427AA278A
:10013000BB27CC2708950027010FC9DF41D0002736
:10014000C6DF08950027010FC2DF41D00027BFDFBF
:1001500008951127DEB7CDB71C8130EC3123303C38
:1001600051F3F0DF3327089599272227332736E00C
:100170004427DEB7CDB72C81FCE0E0E0449138960F
:100180004D32E1F0421719F04030C1F0F7CF9FE354
:10019000379700C045914F3629F0990F3A95303086
:1001A00039F0F8CF990F93953A95303009F0F2CFA6
:1001B0004491423009F002C09F7300C00895089531
:1001C0000F930EE00BD00A95E9F70F9108950F9366
:1001D00004E004D00A95E9F70F91089501D008953D
:1001E0000F931F932F9308E00A9539F01FEF1A958C
:1001F000D9F32FEF2A95D9F3FDCF2F911F910F91AE
:0202000008955F
:100C0000412E2E6F6F2E2E01422E6F2E2E6F2E0232
:100C1000436F2E6F2E2E2E01442E2E2E2E2E6F0160
:100C2000456F6F6F6F6F6F01462E6F6F6F6F2E0284
:100C3000476F6F2E2E6F6F02482E2E6F6F2E2E0273
:100C4000492E6F2E2E6F2E014A2E2E2E2E2E6F0223
:100C50004B2E2E2E2E6F6F024C6F2E6F2E6F2E018D
:100C60004D6F6F6F6F6F6F024E6F6F2E2E2E2E01B6
:100C70004F2E6F6F6F6F2E01506F2E6F6F2E6F01A3
:100C8000516F2E6F6F2E6F02526F6F2E2E6F6F018E
:100C9000532E2E2E2E6F6F01542E2E6F6F2E2E017F
:100CA000556F2E2E2E2E2E01566F2E6F2E6F2E026A
:100CB000576F2E6F2E2E2E02576F6F2E2E2E2E0256
:100CC000592E2E6F6F2E2E025A6F2E2E2E2E2E0282
:100CD0002D6F2E2E2E6F6F0148454C4C4F574F52A3
:100CE0004C44000054484500515549434B00425282
:100CF0004F574E00464F58004A554D50454400004E
:100D00004F5645520000544845004C415A59000086
:040D1000444F470005
:00000001FF
