:020000020000FC
:1000000071E28FEF7EBF8DBF65C001E268D0F3D093
:10001000002765D0F0D008E362D0F4D000275FD08D
:10002000EAD001E25CD0E7D0002759D057C01AE2ED
:100030008AD015E188D01AE286D015E184D0DBD0D1
:10004000DAD01AE287D015E185D01AE283D015E123
:1000500081D01AE27FD015E17DD01AE27BD015E184
:1000600079D03CC008EF0F937CD00F910CED0F932B
:1000700078D00F9140E24F9374D04F914695D9F7C5
:100080002DC055E45F9378D05F919F936AD09F9184
:10009000B2D051E45F9370D05F919F9362D09F91F3
:1000A000AAD05DE45F9368D05F919F935AD09F91EF
:1000B000A2D058E45F9360D05F919F9352D09F91FC
:1000C0009AD05DE25F9358D05F919F934AD09F9101
:1000D00092D004C09CE088EE7FD000C0FFCF4427C0
:1000E000AFEFBFEFC0E80F73000F000F423061F0B9
:1000F0004395000F20F0A695A6950C947600A69542
:10010000A695AC0F0C947600A695A695A695A695F7
:10011000463051F04395B695B695000F10F00C940B
:100120008800BC0F0C9488004FEF40930A0144B93B
:10013000B0930B01A5B90C949D0000274427AA2772
:10014000BB27CC2708950027010FC9DF54D0002713
:10015000C6DF08950027010FC2DF54D00027BFDF9C
:1001600008951127DEB7CDB71C8130EC3123303C28
:1001700051F3F0DF3327089599272227332736E0FC
:100180004427DEB7CDB72C81FCE0E0E044913896FF
:10019000421719F04030C1F0F9CF9FE3379700C004
:1001A00045914F3629F0990F3A95303039F0F8CF14
:1001B000990F93953A95303009F0F2CF449142303F
:1001C00009F002C09F7300C0222733274427FF276E
:1001D000EE27DD27CC270895FF27EE27F92FE82FFC
:1001E000992788275491503029F0C6DF5F919F935B
:1001F000B8DF9F9108950F930EE00BD00A95E9F7B1
:100200000F9108950F9304E004D00A95E9F70F9138
:10021000089501D008950F931F932F9308E00A9536
:1002200039F01FEF1A95D9F32FEF2A95D9F3FDCFA7
:080230002F911F910F91089519
:100C0000412E2E6F6F2E2E01422E6F2E2E6F2E0232
:100C1000436F2E6F2E2E2E01442E2E2E2E2E6F0160
:100C2000456F6F6F6F6F6F01462E6F6F6F6F2E0284
:100C3000476F6F2E2E6F6F02482E2E6F6F2E2E0273
:100C4000492E6F2E2E6F2E014A2E2E2E2E2E6F0223
:100C50004B2E2E2E2E6F6F024C6F2E6F2E6F2E018D
:100C60004D6F6F6F6F6F6F024E6F6F2E2E2E2E01B6
:100C70004F2E6F6F6F6F2E01506F2E6F6F2E6F01A3
:100C8000516F2E6F6F2E6F02526F6F2E2E6F6F018E
:100C9000532E2E2E2E6F6F01542E2E6F6F2E2E017F
:100CA000556F2E2E2E2E2E01566F2E6F2E6F2E026A
:100CB000576F2E6F2E2E2E02576F6F2E2E2E2E0256
:100CC000592E2E6F6F2E2E025A6F2E2E2E2E2E0282
:100CD0002D6F2E2E2E6F6F0148454C4C4F574F52A3
:100CE0004C44000054484500515549434B00425282
:100CF0004F574E00464F58004A554D50454400004E
:100D00004F5645520000544845004C415A59000086
:040D1000444F470005
:00000001FF
